:020000040000FA
:06000000A1EF04F0120064
:0A0006000100600900006A0000001C
:0400100001000000EB
:0C001400010EE66E39DAE5520F0EE66EC2
:10002000E66A60DAE552E55200016A6B380EE66E68
:10003000E66AC0D9E552E552380EE66EE66ABAD9EC
:10004000E552E552380EE66EE66AB4D9E552E5525D
:10005000280EE66EE66AAED9E552E5520001010EC1
:100060006A6F280EE66EE66AA5D9E552E552060EDD
:10007000E66EE66A9FD9E552E5520C0EE66EE66A38
:1000800099D9E552E55245EF00F0010EE66EE66AB9
:1000900091D9E552E5521200020EE66EE66A8AD95F
:1000A000E552E5521200C00EE66EE66A83D9E552CB
:1000B000E5521200D9CFE6FFE1CFD9FFFE0EDB50AB
:1000C0008009E66EE66A76D9E552E552E552E7CF59
:1000D000D9FF1200D9CFE6FFE1CFD9FFFE0EDBCF6B
:1000E000E6FF010EE66E66D9E552E552E552E7CF2E
:1000F000D9FF1200D9CFE6FFE1CFD9FFFD0EDBCF4C
:10010000F6FFFE0EDBCFF7FF0800F55027E0FD0EEF
:10011000DBCFF6FFFE0EDBCFF7FF0800F5500A0835
:100120000AE0FD0EDBCFF6FFFE0EDBCFF7FF080087
:10013000F5500D0802E1B7DF0BD0FD0EDBCFF6FF67
:10014000FE0EDBCFF7FF0800F550E66EC3DFE55289
:10015000FD0EDB2AFE0E01E3DB2AD0D7E552E7CF06
:10016000D9FF1200D9CFE6FFE1CFD9FF0A0EE12671
:10017000DE6ADD6AD950020FE96EDACFEAFFEE6A75
:10018000EE6AEE6AEE6AEE6AEE6AEE6AEE6A100EE9
:10019000106E270E116EFC0EDBCF06F0FD0EDBCFCE
:1001A00007F010C00BF011C00CF07BEC04F0080E4F
:1001B00006C0DBFF090E07C0DBFFFC0EDBCF10F033
:1001C000FD0EDBCF11F0100E0B6E270E0C6E10C063
:1001D00006F011C007F07BEC04F002C010F003C081
:1001E00011F0060E10C0DBFF070E11C0DBFF060E7C
:1001F000DBCF10F0070EDBCF11F0E80E0B6E030E15
:100200000C6E10C006F011C007F07BEC04F002C0C9
:1002100010F003C011F0040E10C0DBFF050E11C07A
:10022000DBFFE80E106E030E116E060EDBCF06F03C
:10023000070EDBCF07F010C00BF011C00CF07BEC09
:1002400004F0060E06C0DBFF070E07C0DBFF040E3E
:10025000DBCF10F0050EDBCF11F0640E0B6E0C6AD5
:1002600010C006F011C007F07BEC04F002C010F0E3
:1002700003C011F0020E10C0DBFF030E11C0DBFF44
:10028000640E106E116A040EDBCF06F0050EDBCF94
:1002900007F010C00BF011C00CF07BEC04F0040E62
:1002A00006C0DBFF050E07C0DBFF020EDBCF10F040
:1002B000030EDBCF11F00A0E0B6E0C6A10C006F0B5
:1002C00011C007F07BEC04F002C010F003C011F085
:1002D00010C0DEFF11C0DDFF0A0E106E116A020EA3
:1002E000DBCF06F0030EDBCF07F010C00BF011C020
:1002F0000CF07BEC04F0020E06C0DBFF030E07C01F
:10030000DBFFFE0EDB50050805E2050EF36EFE0E68
:10031000F3CFDBFF080EDBCF10F0090EDBCF11F0BF
:10032000300E1024E66ED6DEE552060EDBCF10F05E
:10033000070EDBCF11F0300E1024E66ECBDEE55257
:100340002E0EE66EC7DEE552040EDBCF10F0050E72
:10035000DBCF11F0300E1024E66EBCDEE552020E4B
:10036000DBCF10F0030EDBCF11F0300E1024E66E61
:10037000B1DEE552410EE66EADDEE5520A0EE15CFD
:1003800002E2E16AE552E16EE552E7CFD9FF1200E1
:10039000D9CFE6FFE1CFD9FF78DEFD0EDBCFE6FF58
:1003A000FE0EDBCFE6FFA6DEE552E552E552E7CFD3
:1003B000D9FF1200D9CFE6FFE1CFD9FFE652DF6ABD
:1003C0008150DF6E00016A053DE1FE0EDBCFE6FFE6
:1003D0006BD8E552FD0EDB50F00BE66E73D8E5529C
:1003E000E66A54D8E552020EE66EE66A7BD8E5521C
:1003F000E552010EE66E4AD8E552010EE66EE66A57
:1004000071D8E552E552FE0EDBCFE6FF4DD8E5523E
:10041000FD0EDB38F00BE66E55D8E552E66A36D8AD
:10042000E552020EE66EE66A5DD8E552E552010E2F
:10043000E66E2CD8E552010EE66EE66A53D8E55218
:10044000E5521DD0FE0EDBCFE6FF2ED8E552FD0EA5
:10045000DBCFE6FF37D8E552E66A18D8E552020E40
:10046000E66EE66A3FD8E552E552010EE66E0ED81A
:10047000E552010EE66EE66A35D8E552E552DF50E8
:10048000816EE552E552E7CFD9FF1200D9CFE6FFE2
:10049000E1CFD9FFFE0EDB50E8B08186E8A081965F
:1004A000E552E7CFD9FF1200D9CFE6FFE1CFD9FF60
:1004B000FE0EDB50E8B08184E8A08194E552E7CFDE
:1004C000D9FF1200D9CFE6FFE1CFD9FFFE0EDBCF77
:1004D000E6FF0F0E8114E552E710816EE552E7CF7B
:1004E000D9FF1200D9CFE6FFE1CFD9FF060EE126F2
:1004F000DE6ADD6ADECF10F0DDCF11F0FD0EDBCF5E
:1005000012F0FE0EDBCF13F01050125C1150135896
:100510002FE3020EDB6A030EDB6A020EDBCF10F064
:10052000030EDBCF11F0C80E105C000E11581BE259
:10053000040EDB6A050EDB6A040EDBCF10F0050E3D
:10054000DBCF11F00A0E105C000E115806E2040E0B
:10055000DB2A050E01E3DB2AEFD7020EDB2A030EAE
:1005600001E3DB2ADAD7DF2A010E01E3DB2AC2D757
:10057000060EE15C02E2E16AE552E16EE552E7CF88
:04058000D9FF12008D
:0C058400D9CFE6FFE1CFD9FF020EE1263F
:10059000DE6ADD6A806A816A826A030E926E010EEB
:1005A000936E930E946E9FD80AEC00F096D8800E4E
:1005B000E66E5AEC00F0E552EE0EE66E080EE66EC0
:1005C0007AEC00F0E552E552F40EE66E010EE66EAE
:1005D00034D8E552E552E00EE66E080EE66EC8EC41
:1005E00001F0E552E55280A214D08182640EE66EDD
:1005F000E66A23D8E552E552D9CFE9FFDACFEAFF20
:10060000EE50ED1005E1BCD8DF2A010E01E3DB2A34
:1006100007D081B003D0DE6ADD6A02D080A2819269
:10062000E2D7FFD7FED7020EE15C02E2E16AE552B3
:10063000E16EE552E7CFD9FF1200D9CFE6FFE1CF57
:10064000D9FF060EE126DE6ADD6ADECF10F0DDCFCF
:1006500011F0FD0EDBCF12F0FE0EDBCF13F01050C9
:10066000125C115013582FE3020EDB6A030EDB6A93
:10067000020EDBCF10F0030EDBCF11F0C80E105CC2
:10068000000E11581BE2040EDB6A050EDB6A040E35
:10069000DBCF10F0050EDBCF11F0190E105C000E51
:1006A000115806E2040EDB2A050E01E3DB2AEFD720
:1006B000020EDB2A030E01E3DB2ADAD7DF2A010E62
:1006C00001E3DB2AC2D7060EE15C02E2E16AE552F1
:1006D000E16EE552E7CFD9FF12000E0EC16EAA0EF1
:1006E000C06EC26A1200D9CFE6FFE1CFD9FFE65251
:1006F000DF6AAC84810EAF6EAB8EAB88AC8AAE5035
:10070000DF6EAE50DF6EE552E552E7CFD9FF120043
:10071000D9CFE6FFE1CFD9FF9EA8FED7FE0EDB5072
:10072000AD6EE552E7CFD9FF1200ABA202D0AB9875
:10073000AB889EAAFED7AE5000D01200D9CFE6FFFC
:10074000E1CFD9FFFD0EDBCFF6FFFE0EDBCFF7FFCB
:100750000800F55011E0FD0EDBCFF6FFFE0EDBCFFB
:10076000F7FF0800F550E66ED3DFE552FD0EDB2AF9
:10077000FE0E01E3DB2AE6D7E552E7CFD9FF1200F0
:10078000DC0EE66E080EE66ED9DFE552E5520A0E83
:10079000E66EE66A52DFE552E552D10EE66E080ECD
:1007A000E66ECCDFE552E5520A0EE66EE66A45DFFC
:1007B000E552E552BB0EE66E080EE66EBFDFE5526F
:1007C000E5520A0EE66EE66A38DFE552E552A70EFC
:1007D000E66E080EE66EB2DFE552E5520A0EE66EF0
:1007E000E66A2BDFE552E5529E0EE66E080EE66ED7
:1007F000A5DFE552E5521A0EE66E8ADFE5521200D9
:10080000060EF66E000EF76E000EF86E000109007F
:10081000F550656F0900F550666F03E1656701D01B
:100820003DD00900F550606F0900F550616F090077
:10083000F550626F09000900F550E96E0900F550A6
:10084000EA6E090009000900F550636F0900F550D0
:10085000646F09000900F6CF67F0F7CF68F0F8CFB2
:1008600069F060C0F6FF61C0F7FF62C0F8FF0001E9
:10087000635302E1645307E00900F550EE6E63072D
:10088000F8E26407F9D767C0F6FF68C0F7FF69C0F0
:0E089000F8FF00016507000E665BBFD712007F
:02089E00414CCB
:1008A0004552542121210041542B434D47533D30A3
:1008B0003132353635313435330D0041542B435305
:1008C00043413D2B36303136323939393930320DEA
:1008D0000041542B434D47463D310D0041540D001E
:1008E00072656164790D5357313D72737400696E9E
:0608F000697469616C00EF
:0A08F600036A026A100EE76ED89044
:1009000006360736023603360B50025C0C5003588D
:1009100005E30B50025E0C50035A062AE72EF0D76F
:020920001200C3
:0E092200000EF36E00EE00F0080E01D8120079
:10093000EA6002D0EE6AFCD7F350E9601200EE6A7A
:02094000FCD7E2
:0E09420013EE00F023EE00F0F86A0F9C00ECBC
:0E09500004F0AFEC04F0C2EC02F0FBD7120092
:02095E00120085
:010960000195
:020000040030CA
:010001003CC2
:01000300FEFE
:01000500F901
:010006009B5E
:00000001FF
